{
  "_format": "hh-sol-artifact-1",
  "contractName": "Library",
  "sourceName": "contracts/Library.sol",
  "abi": [
    {
      "anonymous": false,
      "inputs": [
        {
          "indexed": false,
          "internalType": "address",
          "name": "recipient",
          "type": "address"
        },
        {
          "indexed": false,
          "internalType": "uint256",
          "name": "bookId",
          "type": "uint256"
        }
      ],
      "name": "AddBook",
      "type": "event"
    },
    {
      "anonymous": false,
      "inputs": [
        {
          "indexed": false,
          "internalType": "uint256",
          "name": "bookId",
          "type": "uint256"
        }
      ],
      "name": "SetBookFinished",
      "type": "event"
    },
    {
      "inputs": [
        {
          "internalType": "string",
          "name": "name",
          "type": "string"
        },
        {
          "internalType": "uint16",
          "name": "year",
          "type": "uint16"
        },
        {
          "internalType": "string",
          "name": "author",
          "type": "string"
        },
        {
          "internalType": "bool",
          "name": "isFinished",
          "type": "bool"
        }
      ],
      "name": "addBook",
      "outputs": [],
      "stateMutability": "nonpayable",
      "type": "function"
    },
    {
      "inputs": [],
      "name": "getFinishedBooks",
      "outputs": [
        {
          "components": [
            {
              "internalType": "uint256",
              "name": "id",
              "type": "uint256"
            },
            {
              "internalType": "string",
              "name": "name",
              "type": "string"
            },
            {
              "internalType": "uint256",
              "name": "year",
              "type": "uint256"
            },
            {
              "internalType": "string",
              "name": "author",
              "type": "string"
            },
            {
              "internalType": "bool",
              "name": "isFinished",
              "type": "bool"
            }
          ],
          "internalType": "struct Library.Book[]",
          "name": "",
          "type": "tuple[]"
        }
      ],
      "stateMutability": "view",
      "type": "function"
    },
    {
      "inputs": [],
      "name": "getUnfinishedBooks",
      "outputs": [
        {
          "components": [
            {
              "internalType": "uint256",
              "name": "id",
              "type": "uint256"
            },
            {
              "internalType": "string",
              "name": "name",
              "type": "string"
            },
            {
              "internalType": "uint256",
              "name": "year",
              "type": "uint256"
            },
            {
              "internalType": "string",
              "name": "author",
              "type": "string"
            },
            {
              "internalType": "bool",
              "name": "isFinished",
              "type": "bool"
            }
          ],
          "internalType": "struct Library.Book[]",
          "name": "",
          "type": "tuple[]"
        }
      ],
      "stateMutability": "view",
      "type": "function"
    },
    {
      "inputs": [
        {
          "internalType": "uint256",
          "name": "bookId",
          "type": "uint256"
        }
      ],
      "name": "setBookFinished",
      "outputs": [],
      "stateMutability": "nonpayable",
      "type": "function"
    }
  ],
  "bytecode": "0x608060405234801561001057600080fd5b50610f0d806100206000396000f3fe608060405234801561001057600080fd5b506004361061004c5760003560e01c8063119fed381461005157806376d9e5a01461006d578063c079766d1461008b578063f2bc01ff146100a7575b600080fd5b61006b600480360381019061006691906109fb565b6100c5565b005b6100756101cb565b6040516100829190610bc8565b60405180910390f35b6100a560048036038101906100a09190610968565b6101dc565b005b6100af61033f565b6040516100bc9190610bc8565b60405180910390f35b3373ffffffffffffffffffffffffffffffffffffffff166001600083815260200190815260200160002060009054906101000a900473ffffffffffffffffffffffffffffffffffffffff1673ffffffffffffffffffffffffffffffffffffffff1614156101c857600160008281548110610168577f4e487b7100000000000000000000000000000000000000000000000000000000600052603260045260246000fd5b906000526020600020906005020160040160006101000a81548160ff0219169083151502179055507f217a30fc1a16990130da3d04870f8022d2b781a0b5b940824b00c544e5a69896816040516101bf9190610bea565b60405180910390a15b50565b60606101d76001610350565b905090565b60008080549050905060006040518060a001604052808381526020018781526020018661ffff16815260200185815260200184151581525090806001815401808255809150506001900390600052602060002090600502016000909190919091506000820151816000015560208201518160010190805190602001906102639291906107ed565b5060408201518160020155606082015181600301908051906020019061028a9291906107ed565b5060808201518160040160006101000a81548160ff0219169083151502179055505050336001600083815260200190815260200160002060006101000a81548173ffffffffffffffffffffffffffffffffffffffff021916908373ffffffffffffffffffffffffffffffffffffffff1602179055507f10545577c692a22f651e69221c47ad4418e40434b36f4e2411bc54007aa8cbb93382604051610330929190610b9f565b60405180910390a15050505050565b606061034b6000610350565b905090565b60606000808054905067ffffffffffffffff811115610398577f4e487b7100000000000000000000000000000000000000000000000000000000600052604160045260246000fd5b6040519080825280602002602001820160405280156103d157816020015b6103be610873565b8152602001906001900390816103b65790505b5090506000805b6000805490508110156106bf573373ffffffffffffffffffffffffffffffffffffffff166001600083815260200190815260200160002060009054906101000a900473ffffffffffffffffffffffffffffffffffffffff1673ffffffffffffffffffffffffffffffffffffffff161480156104ae57508415156000828154811061048b577f4e487b7100000000000000000000000000000000000000000000000000000000600052603260045260246000fd5b906000526020600020906005020160040160009054906101000a900460ff161515145b156106ac57600081815481106104ed577f4e487b7100000000000000000000000000000000000000000000000000000000600052603260045260246000fd5b90600052602060002090600502016040518060a00160405290816000820154815260200160018201805461052090610d48565b80601f016020809104026020016040519081016040528092919081815260200182805461054c90610d48565b80156105995780601f1061056e57610100808354040283529160200191610599565b820191906000526020600020905b81548152906001019060200180831161057c57829003601f168201915b50505050508152602001600282015481526020016003820180546105bc90610d48565b80601f01602080910402602001604051908101604052809291908181526020018280546105e890610d48565b80156106355780601f1061060a57610100808354040283529160200191610635565b820191906000526020600020905b81548152906001019060200180831161061857829003601f168201915b505050505081526020016004820160009054906101000a900460ff161515151581525050838381518110610692577f4e487b7100000000000000000000000000000000000000000000000000000000600052603260045260246000fd5b602002602001018190525081806106a890610dab565b9250505b80806106b790610dab565b9150506103d8565b5060008167ffffffffffffffff811115610702577f4e487b7100000000000000000000000000000000000000000000000000000000600052604160045260246000fd5b60405190808252806020026020018201604052801561073b57816020015b610728610873565b8152602001906001900390816107205790505b50905060005b828110156107e157838181518110610782577f4e487b7100000000000000000000000000000000000000000000000000000000600052603260045260246000fd5b60200260200101518282815181106107c3577f4e487b7100000000000000000000000000000000000000000000000000000000600052603260045260246000fd5b602002602001018190525080806107d990610dab565b915050610741565b50809350505050919050565b8280546107f990610d48565b90600052602060002090601f01602090048101928261081b5760008555610862565b82601f1061083457805160ff1916838001178555610862565b82800160010185558215610862579182015b82811115610861578251825591602001919060010190610846565b5b50905061086f91906108a4565b5090565b6040518060a00160405280600081526020016060815260200160008152602001606081526020016000151581525090565b5b808211156108bd5760008160009055506001016108a5565b5090565b60006108d46108cf84610c2a565b610c05565b9050828152602081018484840111156108ec57600080fd5b6108f7848285610d06565b509392505050565b60008135905061090e81610e92565b92915050565b600082601f83011261092557600080fd5b81356109358482602086016108c1565b91505092915050565b60008135905061094d81610ea9565b92915050565b60008135905061096281610ec0565b92915050565b6000806000806080858703121561097e57600080fd5b600085013567ffffffffffffffff81111561099857600080fd5b6109a487828801610914565b94505060206109b58782880161093e565b935050604085013567ffffffffffffffff8111156109d257600080fd5b6109de87828801610914565b92505060606109ef878288016108ff565b91505092959194509250565b600060208284031215610a0d57600080fd5b6000610a1b84828501610953565b91505092915050565b6000610a308383610b04565b905092915050565b610a4181610cb0565b82525050565b6000610a5282610c6b565b610a5c8185610c8e565b935083602082028501610a6e85610c5b565b8060005b85811015610aaa5784840389528151610a8b8582610a24565b9450610a9683610c81565b925060208a01995050600181019050610a72565b50829750879550505050505092915050565b610ac581610cc2565b82525050565b6000610ad682610c76565b610ae08185610c9f565b9350610af0818560208601610d15565b610af981610e81565b840191505092915050565b600060a083016000830151610b1c6000860182610b81565b5060208301518482036020860152610b348282610acb565b9150506040830151610b496040860182610b81565b5060608301518482036060860152610b618282610acb565b9150506080830151610b766080860182610abc565b508091505092915050565b610b8a81610cfc565b82525050565b610b9981610cfc565b82525050565b6000604082019050610bb46000830185610a38565b610bc16020830184610b90565b9392505050565b60006020820190508181036000830152610be28184610a47565b905092915050565b6000602082019050610bff6000830184610b90565b92915050565b6000610c0f610c20565b9050610c1b8282610d7a565b919050565b6000604051905090565b600067ffffffffffffffff821115610c4557610c44610e52565b5b610c4e82610e81565b9050602081019050919050565b6000819050602082019050919050565b600081519050919050565b600081519050919050565b6000602082019050919050565b600082825260208201905092915050565b600082825260208201905092915050565b6000610cbb82610cdc565b9050919050565b60008115159050919050565b600061ffff82169050919050565b600073ffffffffffffffffffffffffffffffffffffffff82169050919050565b6000819050919050565b82818337600083830152505050565b60005b83811015610d33578082015181840152602081019050610d18565b83811115610d42576000848401525b50505050565b60006002820490506001821680610d6057607f821691505b60208210811415610d7457610d73610e23565b5b50919050565b610d8382610e81565b810181811067ffffffffffffffff82111715610da257610da1610e52565b5b80604052505050565b6000610db682610cfc565b91507fffffffffffffffffffffffffffffffffffffffffffffffffffffffffffffffff821415610de957610de8610df4565b5b600182019050919050565b7f4e487b7100000000000000000000000000000000000000000000000000000000600052601160045260246000fd5b7f4e487b7100000000000000000000000000000000000000000000000000000000600052602260045260246000fd5b7f4e487b7100000000000000000000000000000000000000000000000000000000600052604160045260246000fd5b6000601f19601f8301169050919050565b610e9b81610cc2565b8114610ea657600080fd5b50565b610eb281610cce565b8114610ebd57600080fd5b50565b610ec981610cfc565b8114610ed457600080fd5b5056fea2646970667358221220f163b1a3b2295686df03ae2791c50c5f146154ec057c881aa136f4305d77600c64736f6c63430008040033",
  "linkReferences": {},
  "deployedLinkReferences": {}
}